:03000000020006F5
:20005F00750880750940750A20750B10750C08750D04750E02750F017510017511027512E9
:20007F0004751308751410751520751640751780751881751942751A24751B18751C18755C
:20009F001D24751E42751F8175201875212475224275238175248175254275262475271854
:2000BF007528A0752950752A28752B14752C0A752D05752E02752F017530017531027532EA
:1300DF000575330A7534147535287536507537A00200037C
:0300030002017285
:2000F200AE82AF838E048F051EBEFF011FEC4D70F322308006758200020171E55004FF8FC5
:2001120050BF0803755000E5507008754008F5417542407401B550097540107541007542A2
:20013200407402B550097540187541007542407403B550097540207541007542407404B53B
:2001520050097540287541007542407405B550097540307541007542408550A07582012202
:2001720075816075500175515075400875410075424075533875520074F8255240F7E552B9
:200192002540FDE43541FEAF428D828E838FF01201BEF5909000011200F2120104E582603A
:0C01B20003755200E55204F55280CD2286
:06003500E478FFF6D8FD9F
:200013007900E94400601B7A009001DE780175A000E493F2A308B8000205A0D9F4DAF275B4
:02003300A0FF2C
:20003B007800E84400600A790175A000E4F309D8FC7800E84400600C7900900001E4F0A3C3
:04005B00D8FCD9FAFA
:0D0006007581421201DAE5826003020003F9
:1C01BE0020F71430F6148883A88220F507E6A88375830022E280F7E49322E02250
:0401DA007582002208
:00000001FF
