:03000000020006F5
:20005F00750813750902750A80750B1B750C02750D80750E23750F0275108075112B7512E9
:20007F000275138075143375150275168075173B751802751980751A13751B02751C800259
:02009F0000035C
:030003000201A94E
:2000A100AE82AF838E048F051EBEFF011FEC4D70F32275440075440074F825445003020161
:2000C10084E5427019AD08AE09AF0A8D828E838FF01201F3F5400508E4B5080205097401B9
:2000E100B54219AD0BAE0CAF0D8D828E838FF01201F3F540050BE4B50B02050C7402B542B3
:2001010019AD0EAE0FAF108D828E838FF01201F3F540050EE4B50E02050F7403B54219ADB0
:2001210011AE12AF138D828E838FF01201F3F5400511E4B5110205127404B54219AD14AE81
:2001410015AF168D828E838FF01201F3F5400514E4B5140205157405B54219AD17AE18AF46
:20016100198D828E838FF01201F3F5400517E4B517020518E544241DF8A640E54404F544F2
:200181000200B922308005758200801B9000011200A11200B3E54204FF8F42BF06037542B7
:2001A100008542A075820122758160754201754342AD08AE09AF0A8D828E838FF01201F3EB
:2001C100F5401200B375451D75440074F8254440F7E544241DF9E7F4F5909000051200A17D
:1201E100120185E5826003754400E54404F54480DA220F
:200213008040201008040201010204081020408081422418182442811824428181422418D1
:10023300A05028140A0502010102050A142850A03F
:06003500E478FFF6D8FD9F
:200013007900E94400601B7A00900243780175A000E493F2A308B8000205A0D9F4DAF2754E
:02003300A0FF2C
:20003B007800E84400600A790175A000E4F309D8FC7800E84400600C7900900001E4F0A3C3
:04005B00D8FCD9FAFA
:0D00060075812412020FE5826003020003E1
:1C01F30020F71430F6148883A88220F507E6A88375830022E280F7E49322E0221B
:04020F0075820022D2
:00000001FF
