:03000000020006F5
:03005F0002000399
:0300030002006296
:20006200750A0A9000001200C2AE828E9075090A9000001200A7AE828EA075080A900000FD
:2000820012008AAE828EB022AE82AF8374F62508400EAC087D00EC2EFEED3FFF050880ECFE
:2000A2008E828F8322AE82AF83AC097D00EC2EFEED3FFF050974F6250950EE8E828F8322FB
:1E00C200AE82AF83750A00AC0A7D00EC2EFEED3FFF050A74F6250A50EE8E828F83229F
:06003500E478FFF6D8FD9F
:200013007900E94400601B7A009000E4780175A000E493F2A308B8000205A0D9F4DAF275AF
:02003300A0FF2C
:20003B007800E84400600A790175A000E4F309D8FC7800E84400600C7900900001E4F0A3C3
:04005B00D8FCD9FAFA
:0D00060075810A1200E0E58260030200032C
:0400E0007582002203
:00000001FF
