:03000000020006F5
:03005F0002000399
:0300030002006296
:200062001200758508901200938508A01200AF8508B022E4F508F50974F6250A4012AE0A66
:200082007F00EE2508F508EF3509F509050A80E822E4F508F509AE0A7F00EE2508F508EFE6
:2000A2003509F509050A74F6250A50EA22E4F508F509F50AAE0A7F00EE2508F508EF3509A4
:0B00C200F509050A74F6250A50EA2231
:06003500E478FFF6D8FD9F
:200013007900E94400601B7A009000D1780175A000E493F2A308B8000205A0D9F4DAF275C2
:02003300A0FF2C
:20003B007800E84400600A790175A000E4F309D8FC7800E84400600C7900900001E4F0A3C3
:04005B00D8FCD9FAFA
:0D00060075810A1200CDE58260030200033F
:0400CD007582002216
:00000001FF
